{
  "contractName": "HostelComplaintSystem",
  "abi": [
    {
      "anonymous": false,
      "inputs": [
        {
          "indexed": false,
          "internalType": "uint256",
          "name": "id",
          "type": "uint256"
        },
        {
          "indexed": false,
          "internalType": "address",
          "name": "student",
          "type": "address"
        }
      ],
      "name": "ComplaintRaised",
      "type": "event"
    },
    {
      "anonymous": false,
      "inputs": [
        {
          "indexed": false,
          "internalType": "uint256",
          "name": "id",
          "type": "uint256"
        },
        {
          "indexed": false,
          "internalType": "uint256",
          "name": "reopenCount",
          "type": "uint256"
        },
        {
          "indexed": false,
          "internalType": "string",
          "name": "feedback",
          "type": "string"
        }
      ],
      "name": "ComplaintReopened",
      "type": "event"
    },
    {
      "anonymous": false,
      "inputs": [
        {
          "indexed": false,
          "internalType": "uint256",
          "name": "id",
          "type": "uint256"
        },
        {
          "indexed": false,
          "internalType": "enum HostelComplaintSystem.Status",
          "name": "newStatus",
          "type": "uint8"
        }
      ],
      "name": "StatusChanged",
      "type": "event"
    },
    {
      "inputs": [],
      "name": "complaintCounter",
      "outputs": [
        {
          "internalType": "uint256",
          "name": "",
          "type": "uint256"
        }
      ],
      "stateMutability": "view",
      "type": "function",
      "constant": true
    },
    {
      "inputs": [
        {
          "internalType": "uint256",
          "name": "",
          "type": "uint256"
        }
      ],
      "name": "complaints",
      "outputs": [
        {
          "internalType": "uint256",
          "name": "id",
          "type": "uint256"
        },
        {
          "internalType": "address",
          "name": "student",
          "type": "address"
        },
        {
          "internalType": "string",
          "name": "image",
          "type": "string"
        },
        {
          "internalType": "string",
          "name": "text",
          "type": "string"
        },
        {
          "internalType": "string",
          "name": "blockName",
          "type": "string"
        },
        {
          "internalType": "uint256",
          "name": "floorNo",
          "type": "uint256"
        },
        {
          "internalType": "string",
          "name": "roomNo",
          "type": "string"
        },
        {
          "internalType": "string",
          "name": "category",
          "type": "string"
        },
        {
          "internalType": "enum HostelComplaintSystem.Status",
          "name": "status",
          "type": "uint8"
        },
        {
          "internalType": "uint256",
          "name": "timestamp",
          "type": "uint256"
        },
        {
          "internalType": "uint256",
          "name": "reopenCount",
          "type": "uint256"
        }
      ],
      "stateMutability": "view",
      "type": "function",
      "constant": true
    },
    {
      "inputs": [
        {
          "internalType": "string",
          "name": "_image",
          "type": "string"
        },
        {
          "internalType": "string",
          "name": "_text",
          "type": "string"
        },
        {
          "internalType": "string",
          "name": "_blockName",
          "type": "string"
        },
        {
          "internalType": "uint256",
          "name": "_floorNo",
          "type": "uint256"
        },
        {
          "internalType": "string",
          "name": "_roomNo",
          "type": "string"
        },
        {
          "internalType": "string",
          "name": "_category",
          "type": "string"
        }
      ],
      "name": "raiseComplaint",
      "outputs": [],
      "stateMutability": "nonpayable",
      "type": "function"
    },
    {
      "inputs": [
        {
          "internalType": "uint256",
          "name": "_id",
          "type": "uint256"
        },
        {
          "internalType": "enum HostelComplaintSystem.Status",
          "name": "_newStatus",
          "type": "uint8"
        }
      ],
      "name": "changeStatus",
      "outputs": [],
      "stateMutability": "nonpayable",
      "type": "function"
    },
    {
      "inputs": [
        {
          "internalType": "uint256",
          "name": "_id",
          "type": "uint256"
        },
        {
          "internalType": "bool",
          "name": "satisfied",
          "type": "bool"
        },
        {
          "internalType": "string",
          "name": "feedback",
          "type": "string"
        }
      ],
      "name": "submitReview",
      "outputs": [],
      "stateMutability": "nonpayable",
      "type": "function"
    },
    {
      "inputs": [],
      "name": "getAllComplaints",
      "outputs": [
        {
          "components": [
            {
              "internalType": "uint256",
              "name": "id",
              "type": "uint256"
            },
            {
              "internalType": "address",
              "name": "student",
              "type": "address"
            },
            {
              "internalType": "string",
              "name": "image",
              "type": "string"
            },
            {
              "internalType": "string",
              "name": "text",
              "type": "string"
            },
            {
              "internalType": "string",
              "name": "blockName",
              "type": "string"
            },
            {
              "internalType": "uint256",
              "name": "floorNo",
              "type": "uint256"
            },
            {
              "internalType": "string",
              "name": "roomNo",
              "type": "string"
            },
            {
              "internalType": "string",
              "name": "category",
              "type": "string"
            },
            {
              "internalType": "enum HostelComplaintSystem.Status",
              "name": "status",
              "type": "uint8"
            },
            {
              "internalType": "uint256",
              "name": "timestamp",
              "type": "uint256"
            },
            {
              "internalType": "uint256",
              "name": "reopenCount",
              "type": "uint256"
            },
            {
              "internalType": "string[]",
              "name": "feedbacks",
              "type": "string[]"
            }
          ],
          "internalType": "struct HostelComplaintSystem.Complaint[]",
          "name": "",
          "type": "tuple[]"
        }
      ],
      "stateMutability": "view",
      "type": "function",
      "constant": true
    },
    {
      "inputs": [
        {
          "internalType": "uint256",
          "name": "_id",
          "type": "uint256"
        }
      ],
      "name": "getFeedbacks",
      "outputs": [
        {
          "internalType": "string[]",
          "name": "",
          "type": "string[]"
        }
      ],
      "stateMutability": "view",
      "type": "function",
      "constant": true
    }
  ],
  "bytecode": "0x608060405234801561001057600080fd5b50611e30806100206000396000f3fe608060405234801561001057600080fd5b506004361061007d5760003560e01c806328f69e0d1161005b57806328f69e0d146100da5780637e69e9121461010a578063c5a8a2ab14610144578063daffefb3146101605761007d565b80630cb3ad9c146100825780630dac95391461009e5780630ed74b62146100bc575b600080fd5b61009c60048036038101906100979190611250565b61017c565b005b6100a6610303565b6040516100b39190611763565b60405180910390f35b6100c461083e565b6040516100d19190611794565b60405180910390f35b6100f460048036038101906100ef91906117af565b610844565b6040516101019190611862565b60405180910390f35b610124600480360381019061011f91906117af565b610984565b60405161013b9b9a999897969594939291906118ec565b60405180910390f35b61015e600480360381019061015991906119df565b610cb3565b005b61017a60048036038101906101759190611a57565b610d8e565b005b60008081548092919061018e90611af5565b91905055506000600160008054815260200190815260200160002090506000548160000181905550338160010160006101000a81548173ffffffffffffffffffffffffffffffffffffffff021916908373ffffffffffffffffffffffffffffffffffffffff16021790555086816002019080519060200190610211929190610f94565b508581600301908051906020019061022a929190610f94565b5084816004019080519060200190610243929190610f94565b5083816005018190555082816006019080519060200190610265929190610f94565b508181600701908051906020019061027e929190610f94565b5060008160080160006101000a81548160ff021916908360028111156102a7576102a661146d565b5b0217905550428160090181905550600081600a01819055507fdea84007f312b55dafc9d7c099ac044dd7938f97480aaba93a867f316bcd4cf2600054336040516102f2929190611b3d565b60405180910390a150505050505050565b60606000805467ffffffffffffffff811115610322576103216110ef565b5b60405190808252806020026020018201604052801561035b57816020015b61034861101a565b8152602001906001900390816103405790505b5090506000600190505b6000548111610836576001600082815260200190815260200160002060405180610180016040529081600082015481526020016001820160009054906101000a900473ffffffffffffffffffffffffffffffffffffffff1673ffffffffffffffffffffffffffffffffffffffff1673ffffffffffffffffffffffffffffffffffffffff1681526020016002820180546103fd90611b95565b80601f016020809104026020016040519081016040528092919081815260200182805461042990611b95565b80156104765780601f1061044b57610100808354040283529160200191610476565b820191906000526020600020905b81548152906001019060200180831161045957829003601f168201915b5050505050815260200160038201805461048f90611b95565b80601f01602080910402602001604051908101604052809291908181526020018280546104bb90611b95565b80156105085780601f106104dd57610100808354040283529160200191610508565b820191906000526020600020905b8154815290600101906020018083116104eb57829003601f168201915b5050505050815260200160048201805461052190611b95565b80601f016020809104026020016040519081016040528092919081815260200182805461054d90611b95565b801561059a5780601f1061056f5761010080835404028352916020019161059a565b820191906000526020600020905b81548152906001019060200180831161057d57829003601f168201915b50505050508152602001600582015481526020016006820180546105bd90611b95565b80601f01602080910402602001604051908101604052809291908181526020018280546105e990611b95565b80156106365780601f1061060b57610100808354040283529160200191610636565b820191906000526020600020905b81548152906001019060200180831161061957829003601f168201915b5050505050815260200160078201805461064f90611b95565b80601f016020809104026020016040519081016040528092919081815260200182805461067b90611b95565b80156106c85780601f1061069d576101008083540402835291602001916106c8565b820191906000526020600020905b8154815290600101906020018083116106ab57829003601f168201915b505050505081526020016008820160009054906101000a900460ff1660028111156106f6576106f561146d565b5b60028111156107085761070761146d565b5b815260200160098201548152602001600a8201548152602001600b8201805480602002602001604051908101604052809291908181526020016000905b828210156107f157838290600052602060002001805461076490611b95565b80601f016020809104026020016040519081016040528092919081815260200182805461079090611b95565b80156107dd5780601f106107b2576101008083540402835291602001916107dd565b820191906000526020600020905b8154815290600101906020018083116107c057829003601f168201915b505050505081526020019060010190610745565b5050505081525050826001836108079190611bc6565b8151811061081857610817611bfa565b5b6020026020010181905250808061082e90611af5565b915050610365565b508091505090565b60005481565b606060008211801561085857506000548211155b610897576040517f08c379a000000000000000000000000000000000000000000000000000000000815260040161088e90611c75565b60405180910390fd5b60016000838152602001908152602001600020600b01805480602002602001604051908101604052809291908181526020016000905b828210156109795783829060005260206000200180546108ec90611b95565b80601f016020809104026020016040519081016040528092919081815260200182805461091890611b95565b80156109655780601f1061093a57610100808354040283529160200191610965565b820191906000526020600020905b81548152906001019060200180831161094857829003601f168201915b5050505050815260200190600101906108cd565b505050509050919050565b60016020528060005260406000206000915090508060000154908060010160009054906101000a900473ffffffffffffffffffffffffffffffffffffffff16908060020180546109d390611b95565b80601f01602080910402602001604051908101604052809291908181526020018280546109ff90611b95565b8015610a4c5780601f10610a2157610100808354040283529160200191610a4c565b820191906000526020600020905b815481529060010190602001808311610a2f57829003601f168201915b505050505090806003018054610a6190611b95565b80601f0160208091040260200160405190810160405280929190818152602001828054610a8d90611b95565b8015610ada5780601f10610aaf57610100808354040283529160200191610ada565b820191906000526020600020905b815481529060010190602001808311610abd57829003601f168201915b505050505090806004018054610aef90611b95565b80601f0160208091040260200160405190810160405280929190818152602001828054610b1b90611b95565b8015610b685780601f10610b3d57610100808354040283529160200191610b68565b820191906000526020600020905b815481529060010190602001808311610b4b57829003601f168201915b505050505090806005015490806006018054610b8390611b95565b80601f0160208091040260200160405190810160405280929190818152602001828054610baf90611b95565b8015610bfc5780601f10610bd157610100808354040283529160200191610bfc565b820191906000526020600020905b815481529060010190602001808311610bdf57829003601f168201915b505050505090806007018054610c1190611b95565b80601f0160208091040260200160405190810160405280929190818152602001828054610c3d90611b95565b8015610c8a5780601f10610c5f57610100808354040283529160200191610c8a565b820191906000526020600020905b815481529060010190602001808311610c6d57829003601f168201915b5050505050908060080160009054906101000a900460ff169080600901549080600a015490508b565b6000600160008481526020019081526020016000209050600083118015610cdc57506000548311155b610d1b576040517f08c379a0000000000000000000000000000000000000000000000000000000008152600401610d1290611c75565b60405180910390fd5b818160080160006101000a81548160ff02191690836002811115610d4257610d4161146d565b5b02179055504281600901819055507f365a3d0a71be5f440c8224437355d5bd81a703759bf906e441902272bfbafcb38383604051610d81929190611c95565b60405180910390a1505050565b6000600160008581526020019081526020016000209050600084118015610db757506000548411155b610df6576040517f08c379a0000000000000000000000000000000000000000000000000000000008152600401610ded90611c75565b60405180910390fd5b600280811115610e0957610e0861146d565b5b8160080160009054906101000a900460ff166002811115610e2d57610e2c61146d565b5b14610e6d576040517f08c379a0000000000000000000000000000000000000000000000000000000008152600401610e6490611d0a565b60405180910390fd5b8215610e795750610f8f565b600381600a015410610ec0576040517f08c379a0000000000000000000000000000000000000000000000000000000008152600401610eb790611d9c565b60405180910390fd5b80600a016000815480929190610ed590611af5565b919050555060008160080160006101000a81548160ff02191690836002811115610f0257610f0161146d565b5b021790555042816009018190555080600b0182908060018154018082558091505060019003906000526020600020016000909190919091509080519060200190610f4d929190610f94565b507ff4679139a9a72b14887647d6b45497f33d16e7d4ebe71decca314b1bc28b58fe8482600a015484604051610f8593929190611dbc565b60405180910390a1505b505050565b828054610fa090611b95565b90600052602060002090601f016020900481019282610fc25760008555611009565b82601f10610fdb57805160ff1916838001178555611009565b82800160010185558215611009579182015b82811115611008578251825591602001919060010190610fed565b5b50905061101691906110a3565b5090565b60405180610180016040528060008152602001600073ffffffffffffffffffffffffffffffffffffffff168152602001606081526020016060815260200160608152602001600081526020016060815260200160608152602001600060028111156110885761108761146d565b5b81526020016000815260200160008152602001606081525090565b5b808211156110bc5760008160009055506001016110a4565b5090565b6000604051905090565b600080fd5b600080fd5b600080fd5b600080fd5b6000601f19601f8301169050919050565b7f4e487b7100000000000000000000000000000000000000000000000000000000600052604160045260246000fd5b611127826110de565b810181811067ffffffffffffffff82111715611146576111456110ef565b5b80604052505050565b60006111596110c0565b9050611165828261111e565b919050565b600067ffffffffffffffff821115611185576111846110ef565b5b61118e826110de565b9050602081019050919050565b82818337600083830152505050565b60006111bd6111b88461116a565b61114f565b9050828152602081018484840111156111d9576111d86110d9565b5b6111e484828561119b565b509392505050565b600082601f830112611201576112006110d4565b5b81356112118482602086016111aa565b91505092915050565b6000819050919050565b61122d8161121a565b811461123857600080fd5b50565b60008135905061124a81611224565b92915050565b60008060008060008060c0878903121561126d5761126c6110ca565b5b600087013567ffffffffffffffff81111561128b5761128a6110cf565b5b61129789828a016111ec565b965050602087013567ffffffffffffffff8111156112b8576112b76110cf565b5b6112c489828a016111ec565b955050604087013567ffffffffffffffff8111156112e5576112e46110cf565b5b6112f189828a016111ec565b945050606061130289828a0161123b565b935050608087013567ffffffffffffffff811115611323576113226110cf565b5b61132f89828a016111ec565b92505060a087013567ffffffffffffffff8111156113505761134f6110cf565b5b61135c89828a016111ec565b9150509295509295509295565b600081519050919050565b600082825260208201905092915050565b6000819050602082019050919050565b61139e8161121a565b82525050565b600073ffffffffffffffffffffffffffffffffffffffff82169050919050565b60006113cf826113a4565b9050919050565b6113df816113c4565b82525050565b600081519050919050565b600082825260208201905092915050565b60005b8381101561141f578082015181840152602081019050611404565b8381111561142e576000848401525b50505050565b600061143f826113e5565b61144981856113f0565b9350611459818560208601611401565b611462816110de565b840191505092915050565b7f4e487b7100000000000000000000000000000000000000000000000000000000600052602160045260246000fd5b600381106114ad576114ac61146d565b5b50565b60008190506114be8261149c565b919050565b60006114ce826114b0565b9050919050565b6114de816114c3565b82525050565b600081519050919050565b600082825260208201905092915050565b6000819050602082019050919050565b600061151c8383611434565b905092915050565b6000602082019050919050565b600061153c826114e4565b61154681856114ef565b93508360208202850161155885611500565b8060005b8581101561159457848403895281516115758582611510565b945061158083611524565b925060208a0199505060018101905061155c565b50829750879550505050505092915050565b6000610180830160008301516115bf6000860182611395565b5060208301516115d260208601826113d6565b50604083015184820360408601526115ea8282611434565b915050606083015184820360608601526116048282611434565b9150506080830151848203608086015261161e8282611434565b91505060a083015161163360a0860182611395565b5060c083015184820360c086015261164b8282611434565b91505060e083015184820360e08601526116658282611434565b91505061010083015161167c6101008601826114d5565b50610120830151611691610120860182611395565b506101408301516116a6610140860182611395565b506101608301518482036101608601526116c08282611531565b9150508091505092915050565b60006116d983836115a6565b905092915050565b6000602082019050919050565b60006116f982611369565b6117038185611374565b93508360208202850161171585611385565b8060005b85811015611751578484038952815161173285826116cd565b945061173d836116e1565b925060208a01995050600181019050611719565b50829750879550505050505092915050565b6000602082019050818103600083015261177d81846116ee565b905092915050565b61178e8161121a565b82525050565b60006020820190506117a96000830184611785565b92915050565b6000602082840312156117c5576117c46110ca565b5b60006117d38482850161123b565b91505092915050565b600082825260208201905092915050565b60006117f8826114e4565b61180281856117dc565b93508360208202850161181485611500565b8060005b8581101561185057848403895281516118318582611510565b945061183c83611524565b925060208a01995050600181019050611818565b50829750879550505050505092915050565b6000602082019050818103600083015261187c81846117ed565b905092915050565b61188d816113c4565b82525050565b600082825260208201905092915050565b60006118af826113e5565b6118b98185611893565b93506118c9818560208601611401565b6118d2816110de565b840191505092915050565b6118e6816114c3565b82525050565b600061016082019050611902600083018e611785565b61190f602083018d611884565b8181036040830152611921818c6118a4565b90508181036060830152611935818b6118a4565b90508181036080830152611949818a6118a4565b905061195860a0830189611785565b81810360c083015261196a81886118a4565b905081810360e083015261197e81876118a4565b905061198e6101008301866118dd565b61199c610120830185611785565b6119aa610140830184611785565b9c9b505050505050505050505050565b600381106119c757600080fd5b50565b6000813590506119d9816119ba565b92915050565b600080604083850312156119f6576119f56110ca565b5b6000611a048582860161123b565b9250506020611a15858286016119ca565b9150509250929050565b60008115159050919050565b611a3481611a1f565b8114611a3f57600080fd5b50565b600081359050611a5181611a2b565b92915050565b600080600060608486031215611a7057611a6f6110ca565b5b6000611a7e8682870161123b565b9350506020611a8f86828701611a42565b925050604084013567ffffffffffffffff811115611ab057611aaf6110cf565b5b611abc868287016111ec565b9150509250925092565b7f4e487b7100000000000000000000000000000000000000000000000000000000600052601160045260246000fd5b6000611b008261121a565b91507fffffffffffffffffffffffffffffffffffffffffffffffffffffffffffffffff8203611b3257611b31611ac6565b5b600182019050919050565b6000604082019050611b526000830185611785565b611b5f6020830184611884565b9392505050565b7f4e487b7100000000000000000000000000000000000000000000000000000000600052602260045260246000fd5b60006002820490506001821680611bad57607f821691505b602082108103611bc057611bbf611b66565b5b50919050565b6000611bd18261121a565b9150611bdc8361121a565b925082821015611bef57611bee611ac6565b5b828203905092915050565b7f4e487b7100000000000000000000000000000000000000000000000000000000600052603260045260246000fd5b7f496e76616c696420636f6d706c61696e74204944000000000000000000000000600082015250565b6000611c5f601483611893565b9150611c6a82611c29565b602082019050919050565b60006020820190508181036000830152611c8e81611c52565b9050919050565b6000604082019050611caa6000830185611785565b611cb760208301846118dd565b9392505050565b7f436f6d706c61696e74206e6f74207265736f6c76656420796574000000000000600082015250565b6000611cf4601a83611893565b9150611cff82611cbe565b602082019050919050565b60006020820190508181036000830152611d2381611ce7565b9050919050565b7f436f6d706c61696e742063616e6e6f742062652072656f70656e6564206d6f7260008201527f65207468616e20332074696d6573000000000000000000000000000000000000602082015250565b6000611d86602e83611893565b9150611d9182611d2a565b604082019050919050565b60006020820190508181036000830152611db581611d79565b9050919050565b6000606082019050611dd16000830186611785565b611dde6020830185611785565b8181036040830152611df081846118a4565b905094935050505056fea2646970667358221220fb47667c3666cb5c590de4d976e04e883c26cb437f81629416380d4328b9e27d64736f6c634300080d0033",
  "immutableReferences": {},
  "source": "pragma solidity ^0.8.13;\r\n// SPDX-License-Identifier: MIT\r\n\r\ncontract HostelComplaintSystem {\r\n\r\n    enum Status { Pending, InProgress, Completed }\r\n\r\n    struct Complaint {\r\n        uint id;\r\n        address student;\r\n        string image;       // optional (can be empty string)\r\n        string text;\r\n        string blockName;\r\n        uint floorNo;\r\n        string roomNo;      // optional\r\n        string category;\r\n        Status status;\r\n        uint timestamp;     // for 3-day check in JS\r\n        uint reopenCount;   // how many times reopened\r\n        string[] feedbacks; // feedback when marked Unsatisfied\r\n    }\r\n\r\n    uint public complaintCounter;\r\n    mapping(uint => Complaint) public complaints;\r\n\r\n    // Events for frontend tracking\r\n    event ComplaintRaised(uint id, address student);\r\n    event StatusChanged(uint id, Status newStatus);\r\n    event ComplaintReopened(uint id, uint reopenCount, string feedback);\r\n\r\n    // Raise a new complaint\r\n    function raiseComplaint(\r\n        string memory _image,\r\n        string memory _text,\r\n        string memory _blockName,\r\n        uint _floorNo,\r\n        string memory _roomNo,\r\n        string memory _category\r\n    ) public {\r\n        complaintCounter++;\r\n        Complaint storage c = complaints[complaintCounter];\r\n        c.id = complaintCounter;\r\n        c.student = msg.sender;\r\n        c.image = _image;\r\n        c.text = _text;\r\n        c.blockName = _blockName;\r\n        c.floorNo = _floorNo;\r\n        c.roomNo = _roomNo;\r\n        c.category = _category;\r\n        c.status = Status.Pending;\r\n        c.timestamp = block.timestamp;\r\n        c.reopenCount = 0;\r\n\r\n        emit ComplaintRaised(complaintCounter, msg.sender);\r\n    }\r\n\r\n    // Change complaint status (anyone can call, frontend will restrict in JS)\r\n    function changeStatus(uint _id, Status _newStatus) public {\r\n        Complaint storage c = complaints[_id];\r\n        require(_id > 0 && _id <= complaintCounter, \"Invalid complaint ID\");\r\n        c.status = _newStatus;\r\n        c.timestamp = block.timestamp; // refresh timestamp\r\n        emit StatusChanged(_id, _newStatus);\r\n    }\r\n\r\n    // Submit review (Satisfied / Unsatisfied)\r\n    function submitReview(uint _id, bool satisfied, string memory feedback) public {\r\n        Complaint storage c = complaints[_id];\r\n        require(_id > 0 && _id <= complaintCounter, \"Invalid complaint ID\");\r\n        require(c.status == Status.Completed, \"Complaint not resolved yet\");\r\n\r\n        if (satisfied) {\r\n            // Complaint remains completed\r\n            return;\r\n        } else {\r\n            // Unsatisfied  reopen, max 3 times\r\n            require(c.reopenCount < 3, \"Complaint cannot be reopened more than 3 times\");\r\n            c.reopenCount++;\r\n            c.status = Status.Pending;\r\n            c.timestamp = block.timestamp;\r\n            c.feedbacks.push(feedback);\r\n\r\n            emit ComplaintReopened(_id, c.reopenCount, feedback);\r\n        }\r\n    }\r\n\r\n    // Fetch all complaints\r\n    function getAllComplaints() public view returns (Complaint[] memory) {\r\n        Complaint[] memory list = new Complaint[](complaintCounter);\r\n        for (uint i = 1; i <= complaintCounter; i++) {\r\n            list[i-1] = complaints[i];\r\n        }\r\n        return list;\r\n    }\r\n\r\n    // Fetch feedbacks for a complaint\r\n    function getFeedbacks(uint _id) public view returns (string[] memory) {\r\n        require(_id > 0 && _id <= complaintCounter, \"Invalid complaint ID\");\r\n        return complaints[_id].feedbacks;\r\n    }\r\n}\r\n",
  "sourcePath": "C:\\Users\\divya\\OneDrive\\Documents\\Hostel management blockchain\\contracts\\HostelComplaintSystem.sol",
  "compiler": {
    "name": "solc",
    "version": "0.8.13+commit.abaa5c0e.Emscripten.clang"
  },
  "schemaVersion": "3.4.16",
  "updatedAt": "2025-09-20T15:32:29.605Z",
  "networkType": "ethereum",
  "devdoc": {
    "kind": "dev",
    "methods": {},
    "version": 1
  },
  "userdoc": {
    "kind": "user",
    "methods": {},
    "version": 1
  }
}